:0200000080245A
:080003000210030000000000E0
:08000B0002100B0000000000D0
:080013000210130000000000C0
:08001B0002101B0000000000B0
:10002300021023E4F5D0F50EF50D758155F12C3052
:10003300B059C28E75985A758921758D00789020B4
:10004300B0FDD8FE158D785E30B0F720B0FD30B02E
:10005300FDD28E31030D4D43532D35312054494E7E
:10006300592042415349432F4D6574616C696E6B4E
:100073002D436F6D70617469626C6520536F757287
:1000830063652056322E338D020879D242D2410263
:10009300089A3098FDE599C298547FB40302212C45
:1000A300B461004007B47B00500254DF22740D306A
:1000B30099FDC299F599B40D0A3099FDC2997599C4
:1000C3000A8004C3D55004755008D32230980A110E
:1000D30095B413051195B411FB22742011B250FA93
:1000E30022540F7003204807C24824038311B2220D
:1000F300303132333435363738394142434445465B
:10010300D083D082E493A310E70411B280F611B236
:10011300E47302087C3103484F573F8D80F4310369
:10012300534F525259218D80E931030D57484154A1
:100133003F8D80DEA92AB92C004021FEE7FF19E795
:10014300CE19892A1922A92AE7152A22A92AB94DE3
:1001530000500909EEF709EFF7892A2231210FA987
:100163002AB94D0050F619E70987F009F709A7F0F6
:10017300892A22D083D082E493052AA92AB94F027F
:10018300809CF77401D3738090A0B08898A8B88935
:100193008A8B8C8D998E80228E90228EA0228EB097
:1001A300228E88228E98228EA8228EB8228E8922B1
:1001B3008E8A228E8B228E8C228E8D228E9922E520
:1001C3008022E59022E5A022E5B022E58822E59889
:1001D30022E5A822E5B822E58922E58A22E58B22D9
:1001E300E58C22E58D22E5992290018AE4FDED93C9
:1001F300697004ED232D220DEDB40EF22118FEE9F2
:1002030020E703EEF72231EC90019873E920E7022F
:10021300E72231EC9001C273EE54F820E70423C4C3
:100223002420F9EE5407240383F5F0220102040885
:1002330010204080D24B8002C24B31378E088F0989
:1002430031373149304B06052A052A052A900255D4
:1002530093730523293E3EEE2320400D2410F924F9
:10026300D94099A70809A70922F975A020E508F341
:1002730009E509F322EEF9E5088083511B510FFECE
:10028300E50820E006E5F0F45E4101E5F04E4101AA
:100293008FA0EEF9E508F322D24B8002C24B31372F
:1002A3003149304B06052A052A052A9002B3937378
:1002B30005252B373EEE2320400E2410F924D94088
:1002C30012E7FE09E7FF214FF975A020E3FE09E3DA
:1002D300FF214F21FFEEF9510F8019511B510F558B
:1002E300F024FFE433800D8FA0EEF9E380068F83C3
:1002F3008E82E4937F00FE214F24D0B40A00500580
:10030300FE7F00C24D22204D3E24D0B40A0040138C
:1003130030443424EFB406004007B4072AD24DD347
:1003230022240ACE75F00A30440375F010C0F0A4FD
:100333002EFEE435F0CFD0F0A42FFF72E7E5F034C2
:10034300FFB0444004D322C322311802A2D2B044E6
:10035300400122311806E72EF709E73FF72231372C
:10036300715980E83137C3E79EF709E79FF780DCCF
:100373003137E75EF709E75FF7223137E74EF709D1
:10038300E74FF7223137E76EF709E76FF722C3B27A
:100393004AA92A19E497F709E497F780AFD380F1C4
:1003A300A92AE7A2E7B04440E522204AE122A92A8C
:1003B3001907B70002090722C2D5A92AE76005EF8A
:1003C3006002D2D519E78FF0A430D202D2D509C783
:1003D3008EF0A430D202D2D527F772D592D519E781
:1003E3008EF0A4F7E5F00927F772D572E792D222CF
:1003F300C24A71A3313771A371BB714F71AD22D260
:100403004C8002C24CD24A71A371913137EE4F60D6
:100413004DA24AB04C924A71A3F50919E7F508E4D5
:10042300F50BF50A7D11C38017E50A33F50AC50BF1
:1004330033C50B2EF50CE50B3F5005850C0AF50B68
:10044300E50833F508E50933F509DDDD204C07A799
:100453000809A7098005A70A09A70B71AD226156F0
:10046300AE0DAF0E314F7E557F6271BB7E197F3665
:10047300A92A1971593137BE0007BF80047E2A7F2C
:10048300318E0D8F0E314F2231373149F5F0A92AC4
:1004930019C3E79E09C72044066480CF6480CF9FB9
:1004A300477004A2F180084004A2F08002A2F2E4A3
:1004B300F73319F722C2492041057A2078342220E4
:1004C30042057A0C7817227A1078802288518A5252
:1004D3008C5322AA52A851AC5322204302E6222075
:1004E30041048AA0E222E8C582CAC583F8E493C81E
:1004F300C583CAC582C82210490991DDFC08B8002A
:10050300010A22EC222041048BA0F3222118B10816
:1005130009B900010B2291FA642060FAD249D3226F
:1005230091FA91FA91FAB40DFB22D083D08291FA19
:1005330091CFE493A2E7547F6C7012A3400B91FA1E
:10054300BC2EEFE493A330E7FAB119E473E493A369
:1005530030E7FA91D6D249C3E47391FA24BFFE245B
:10056300E65004D249C32291CF91FA24BF24E65026
:1005730003BC2E4091D6D249B12D44425954C550A3
:10058300053176018027B12D524249D45005317689
:1005930002801AB12D58425954C550053176038053
:1005A3000CB12D43425954C55008317604120B87C0
:1005B300D322C3223176007F00314FD249A1199152
:1005C300FA51FC4003D2492291FA710940FA314FA2
:1005D300D249A11991FAF508642260086405600400
:1005E300C3D2492291FAB50802A11911B2B40DF48C
:1005F300212C91FABC3A032291FABC0D0122D24973
:10060300212C91FABC3A0122BC0D0122D249D322FA
:1006130091FAF55591FAF554E555A2E722304302D4
:1006230080EED32211B0BC3A05B1190208A2020828
:100633009DE52A2404F508A8083103BE1195B412D8
:100643001231038D8851A808E8655160EFE611B2B5
:100653000880F5B418063103238D80DBB47F11E8DD
:10066300B5080531038780D431030820881880CC6E
:10067300B84E0531038780C4F611B208B40DBDA886
:1006830008C24922C24A71A33137D248E4F5087D32
:100693001020441D304A033103ADCE33CECF33CFC8
:1006A300C50835E0D4C50835E0D4DDEEFFEE33AE42
:1006B3000811E4EFC411E4EF11E4304402C248EE40
:1006C300C411E4C248EE11E43044033103C822D11B
:1006D300134012AF55AE54C24AD18D3103A091FAE3
:1006E30011B2B40DF922D24391B811CF4004D1D243
:1006F30050F8C24322C24A31033AA0119511B2B451
:10070300200280F7B42B0280F2B42D04B24A80EBAE
:1007130051FC5007119511B2B47F063103238D802C
:10072300D4710940EF314F61ADE4F528F52975A087
:1007330020F8745AF2E2645A600AE47810F608B8B2
:1007430028FB8009D240E4F8F208B834FB22F12CEC
:10075300783474FFF222752A2A91B8D24322D24305
:1007630091B8313791CFD1134012EE9554F554EF30
:100773009555455460064004B12780E881D6A951B8
:10078300AB52B12391FAB11120E70D91FAB1119156
:10079300FAB111B40DF980EC2291D6C24991FA2035
:1007A300E70991FA91FAB40DFB80F2E50F240328CF
:1007B300F9E43AFBB43002212191E2B108E8B551E2
:1007C30005EAB552012218B8FF011A19B9FFEA1B4D
:1007D30080E7A951AB52EFB111EEB111A84FE6B1C9
:1007E3001108B40DF92218884FF1614002F181A973
:1007F3004F1909E7B40DFBE9C3954FF50F600612D6
:10080300079C1207D5C24322120137EE13221207A7
:10081300614002019D020118AF55AE5402014F120F
:1008230007611205238073E8C0E0E52A24FEF9245A
:10083300F9F87D03E76670201819DDF8D0E0F812A7
:10084300023BE52A24FDF9C3E7950809E72044059F
:100853006480630980950922D0E0F802012CC24329
:10086300801FA92A87F019E719892AC0E0C0F0433D
:10087300D0182202012C120751C243758155752AE3
:100883002A1201034F4B8D1206341205191205C2A9
:10089300500D1207E980F012075912062040DA12B0
:1008A30000CF12051912055D500812052DBD502EFB
:1008B300801312052D4C45D4503012055D50B412EF
:1008C300052DBD50AE51EB12052DAC500812023769
:1008D3001203B180F01205F512023B02062912053C
:1008E300F512029F12068702062712052D474F5461
:1008F300CF500751EB1205FB011112052D474F5342
:1009030055C25009111B51EB1205FB011112052DA4
:100913005052494ED45043120605503812052DBB90
:10092300500280F812052DAC50051200DD80ED1247
:10093300060550231205D7400551EB120687120511
:100943002DAC50051200DD80D312052DBB50028063
:10095300CB1205F502062702062912052D49C650BA
:100963001651EB12052D544845CE5000110B500281
:1009730001A2120527019D12052D494E5055D45051
:100983002B1205D7400B12055D50191206F81202FF
:100993003B12052DBB500280E812052DAC50071207
:1009A30000DD80DD61CA1205F502062712052D520E
:1009B30045545552CE50051205FB012212052D4315
:1009C300414CCC500D51EB1205FB116553D0E7029E
:1009D300062912052D464FD2502112055D504B12A8
:1009E300052DBD504551EB12023712052D54CF5042
:1009F3003951EB1205FB111B02062912052D4E4539
:100A030058D4502812055D50211205F512029B128D
:100A130003B1112A400512016201221201371201AA
:100A230037120137120149020629017612052D45B5
:100A33004EC450051205FB016112052D4C4953D4D8
:100A43005014120605500A51EB1207611206ED010C
:100A5300841206E9018412052D5255CE5005120564
:100A6300FB019A12052D4E45D750051205F5017964
:100A730012052D52455345D450061205F5020000C8
:100A830012052D524FCD500A1205F5D241C2420232
:100A9300062912052D5241CD50081205F5C2410217
:100AA300062912052D50524FCD500A1205F5D24199
:100AB300D24202062912052D4845D850081205F5E1
:100AC300D24402062912052D444543494D41CC50D9
:100AD300081205F5C24402062912052D5245CD50D0
:100AE30005120527019D017651F871CC504051F84C
:100AF30012048B80F5713212052DAB50077132123F
:100B0300036180F312052DAD500771321203678024
:100B1300E612052D4FD25007713212037D80D81291
:100B2300052D584FD25007713212038780C92271A5
:100B33006D12052DAA5007716D1203F380F3120590
:100B43002DAF5007716D12040680E612052D414E3C
:100B5300C45007716D12037380D712052D4D4FC416
:100B63005007716D12040280C82212052DAD500684
:100B730071871203912212052D4E4FD450067187AF
:100B83001203A02212055D500412029F221205C215
:100B930050012212052D524EC4500F12046371BB33
:100BA3001204021203A31203B12212052D4142D3F0
:100BB300500671BB1203A32212052DA8500951EB55
:100BC30012052DA9500122017612052DBD500512E3
:100BD3000176022212052D3CBD5005120176062234
:100BE30012052D3CBE5005120176052212052DBCBF
:100BF3005005120176042212052D3EBD5005120147
:100C030076032212052DBE50051201760122C3225E
:100C13000F8F9022350850522E2248656C6C6F223C
:100C23000D360850522E22546869736973626569E0
:100C33006E6772756E756E64657254696E79426122
:100C430073696356322E33220DE00B50522E3A490C
:100C53004E2E2254595045616E797468696E6754FB
:100C63004F454E4450524F4752414D222C440DEABA
:100C73000B50522E224861766566756E21212E2E09
:100C83002E2E2E4A4C756D342F32352F3932220DCC
:070C9300F40B454E440D80F7
:00000001FF
