:0200000080245A
:080003000210030000000000E0
:08000B0002100B0000000000D0
:080013000210130000000000C0
:08001B0002101B0000000000B0
:10002300021023E4F5D0F50EF50D758155F12E3050
:10003300B05BC28E75985A758921758D00789020B2
:10004300B0FDD8FE158D785E30B0F720B0FD30B02E
:10005300FDD28E31050D4D43532D35312054494E7C
:10006300592042415349432F415320506F727469C1
:100073006E672066726F6D20544235314D4C3233BA
:100083002E5A49502056322E338D02087BD242D24B
:100093004102089C3098FDE599C298547FB403024D
:1000A300212EB461004007B47B00500254DF227458
:1000B3000D3099FDC299F599B40D0A3099FDC29995
:1000C30075990A8004C3D55004755008D32230981B
:1000D3000A1197B413051197B411FB22742011B4BC
:1000E30050FA22540F7003204807C2482403831197
:1000F300B422303132333435363738394142434410
:100103004546D083D082E493A310E70411B480F66C
:1001130011B4E47302087E3105484F573F8D80F4D4
:100123003105534F525259218D80E931050D5748FE
:1001330041543F8D80DEA92AB92C004021FEE7FF00
:1001430019E7CE19892A1922A92AE7152A22A92AE9
:10015300B94D00500909EEF709EFF7892A22312337
:100163000FA92AB94D0050F619E70987F009F709D5
:10017300A7F0892A22D083D082E493052AA92AB939
:100183004F02809CF77401D3738090A0B08898A825
:10019300B8898A8B8C8D998E80228E90228EA02294
:1001A3008EB0228E88228E98228EA8228EB8228E1E
:1001B30089228E8A228E8B228E8C228E8D228E997C
:1001C30022E58022E59022E5A022E5B022E58822FF
:1001D300E59822E5A822E5B822E58922E58A22E509
:1001E3008B22E58C22E58D22E5992290018CE4FD9A
:1001F300ED93697004ED232D220DEDB40EF2211A57
:10020300FEE920E703EEF72231EE90019A73E9202D
:10021300E702E72231EE9001C473EE54F820E704BD
:1002230023C42420F9EE5407240383F5F0220102AA
:10023300040810204080D24B8002C24B31398E0813
:100243008F093139314B304B06052A052A052A908F
:10025300025793730523293E3EEE2320400D2410BD
:10026300F924D94099A70809A70922F975A020E51F
:1002730008F309E509F322EEF9E5088083511D51DE
:1002830011FEE50820E006E5F0F45E4103E5F04EDB
:1002930041038FA0EEF9E508F322D24B8002C24B53
:1002A3003139314B304B06052A052A052A9002B510
:1002B300937305252B373EEE2320400E2410F9249B
:1002C300D94012E7FE09E7FF2151F975A020E3FEAB
:1002D30009E3FF21514101EEF951118019511D51DB
:1002E3001155F024FFE433800D8FA0EEF9E380066F
:1002F3008F838E82E4937F00FE215124D0B40A00C1
:100303005005FE7F00C24D22204D3E24D0B40A008A
:10031300401330443424EFB406004007B4072AD214
:100323004DD322240ACE75F00A30440375F010C071
:10033300F0A42EFEE435F0CFD0F0A42FFF72E7E552
:10034300F034FFB0444004D322C322311A02A2D2B4
:10035300B044400122311A06E72EF709E73FF7229E
:100363003139715B80E83139C3E79EF709E79FF7BD
:1003730080DC3139E75EF709E75FF7223139E74E71
:10038300F709E74FF7223139E76EF709E76FF722ED
:10039300C3B24AA92A19E497F709E497F780AFD3C0
:1003A30080F1A92AE7A2E7B04440E522204AE122EE
:1003B300A92A1907B70002090722C2D5A92AE760AB
:1003C30005EF6002D2D519E78FF0A430D202D2D55F
:1003D30009C78EF0A430D202D2D527F772D592D5B1
:1003E30019E78EF0A4F7E5F00927F772D572E792C3
:1003F300D222C24A71A5313971A571BD715171AF54
:1004030022D24C8002C24CD24A71A571933139EE8B
:100413004F604DA24AB04C924A71A5F50919E7F510
:1004230008E4F50BF50A7D11C38017E50A33F50AD5
:10043300C50B33C50B2EF50CE50B3F5005850C0A98
:10044300F50BE50833F508E50933F509DDDD204C47
:1004530007A70809A7098005A70A09A70B71AF22F7
:100463006158AE0DAF0E31517E557F6271BD7E195D
:100473007F36A92A19715B3139BE0007BF80047E1C
:100483002A7F318E0D8F0E3151223139314BF5F0E8
:10049300A92A19C3E79E09C72044066480CF648054
:1004A300CF9F477004A2F180084004A2F08002A20B
:1004B300F2E4F73319F722C2492041057A20783450
:1004C300222042057A0C7819227A107880228851EA
:1004D3008A528C5322AA52A851AC5322204302E6DB
:1004E300222041048AA0E222E8C582CAC583F8E437
:1004F30093C8C583CAC582C82210490991DFFC0885
:10050300B800010A22EC222041048BA0F322211A15
:10051300B10A09B900010B2291FC642060FAD249A7
:10052300D32291FC91FC91FCB40DFB22D083D082A9
:1005330091FC91D1E493A2E7547F6C7012A3400B1A
:1005430091FCBC2EEFE493A330E7FAB11BE473E410
:1005530093A330E7FA91D8D249C3E47391FC24BF43
:10056300FE24E65004D249C32291D191FC24BF2436
:10057300E65003BC2E4091D8D249B12F444259547E
:10058300C550053178018027B12F524249D4500517
:10059300317802801AB12F58425954C55005317829
:1005A30003800CB12F43425954C5500831780412CB
:1005B3000B89D322C3223178007F003151D249A164
:1005C3001B91FC51FE4003D2492291FC710B40FA6E
:1005D3003151D249A11B91FCF508642260086405DE
:1005E3006004C3D2492291FCB50802A11B11B4B423
:1005F3000DF4212E91FCBC3A032291FCBC0D012287
:10060300D249212E91FCBC3A0122BC0D0122D249D0
:10061300D32291FCF55591FCF554E555A2E7223020
:10062300430280EED32211B2BC3A05B11B0208A4E7
:1006330002089FE52A2404F508A8083105BE11978E
:10064300B4121231058D8851A808E8655160EFE6B0
:1006530011B40880F5B418063105238D80DBB47F0F
:1006630011E8B5080531058780D4310508208818BD
:1006730080CCB84E0531058780C4F611B408B40D9B
:10068300BDA808C24922C24A71A53139D248E4F54E
:10069300087D1020441D304A033105ADCE33CECF43
:1006A30033CFC50835E0D4C50835E0D4DDEEFFEE21
:1006B30033AE0811E6EFC411E6EF11E6304402C28F
:1006C30048EEC411E6C248EE11E63044033105C8D2
:1006D30022D1154012AF55AE54C24AD18F3105A075
:1006E30091FC11B4B40DF922D24391BA11D1400453
:1006F300D1D450F8C24322C24A31053AA01197110E
:10070300B4B4200280F7B42B0280F2B42D04B24AB1
:1007130080EB51FE5007119711B4B47F06310523C6
:100723008D80D4710B40EF315161AFE4F528F52989
:1007330075A020F8745AF2E2645A600AE47810F65D
:1007430008B828FB8009D240E4F8F208B834FB2249
:10075300F12E783474FFF222752A2A91BAD24322F9
:10076300D24391BA313991D1D1154012EE9554F556
:1007730054EF9555455460064004B12980E881D86B
:10078300A951AB52B12591FCB11320E70D91FCB1F6
:100793001391FCB113B40DF980EC2291D8C24991A5
:1007A300FC20E70991FC91FCB40DFB80F2E50F24DA
:1007B3000328F9E43AFBB43002212391E4B10AE8B7
:1007C300B55105EAB552012218B8FF011A19B9FF4C
:1007D300EA1B80E7A951AB52EFB113EEB113A84F57
:1007E300E6B11308B40DF92218884FF1634002F102
:1007F30083A94F1909E7B40DFBE9C3954FF50F60C2
:100803000612079E1207D7C24322120139EE1322A2
:100813001207634002019F02011AAF55AE54020151
:10082300511207631205258073E8C0E0E52A24FE10
:10083300F924F9F87D03E76670201819DDF8D0E094
:10084300F812023DE52A24FDF9C3E7950809E720DC
:1008530044056480630980950922D0E0F802012EE3
:10086300C243801FA92A87F019E719892AC0E0C06B
:10087300F043D0182202012E120753C2437581554B
:10088300752A2A1201054F4B8D12063612051B12CB
:1008930005C4500D1207EB80F012075B12062240CD
:1008A300DA1200D112051B12055F500812052FBD85
:1008B300502E801312052F4C45D4503012055F5033
:1008C300B412052FBD50AE51ED12052FAC500812D6
:1008D30002391203B380F01205F712023D02062B10
:1008E3001205F71202A112068902062912052F47E3
:1008F3004F54CF500751ED1205FD011312052F4739
:100903004F5355C25009111D51ED1205FD0113122C
:10091300052F5052494ED450431206075038120542
:100923002FBB500280F812052FAC50051200DF8058
:10093300ED12060750231205D9400551ED12068921
:1009430012052FAC50051200DF80D312052FBB50C8
:100953000280CB1205F702062902062B12052F4946
:10096300C6501651ED12052F544845CE5000110DB7
:10097300500201A4120529019F12052F494E50551B
:10098300D4502B1205D9400B12055F50191206FAE9
:1009930012023D12052FBB500280E812052FAC5006
:1009A300071200DF80DD61CC1205F702062912056C
:1009B3002F5245545552CE50051205FD0124120500
:1009C3002F43414CCC500D51ED1205FD116753D00F
:1009D300E702062B12052F464FD2502112055F5016
:1009E3004B12052FBD504551ED12023912052F54FC
:1009F300CF503951ED1205FD111D02062B12052FA3
:100A03004E4558D4502812055F50211205F71202A3
:100A13009D1203B3112C4005120164012412013904
:100A230012013912013912014B02062B017812050A
:100A33002F454EC450051205FD016312052F4C4985
:100A430053D45014120607500A51ED1207631206CD
:100A5300EF01861206EB018612052F5255CE500583
:100A63001205FD019C12052F4E45D750051205F7BF
:100A7300017B12052F52455345D450061205F70248
:100A8300000012052F524FCD500A1205F7D241C272
:100A93004202062B12052F5241CD50081205F7C210
:100AA3004102062B12052F50524FCD500A1205F763
:100AB300D241D24202062B12052F4845D8500812C4
:100AC30005F7D24402062B12052F444543494D41F5
:100AD300CC50081205F7C24402062B12052F5245CB
:100AE300CD5005120529019F017851FA71CE50406E
:100AF30051FA12048D80F5713412052FAB50077132
:100B03003412036380F312052FAD500771341203BF
:100B13006980E612052F4FD25007713412037F808C
:100B2300D812052F584FD25007713412038980C948
:100B330022716F12052FAA5007716F1203F580F30C
:100B430012052FAF5007716F12040880E612052FAC
:100B5300414EC45007716F12037580D712052F4D94
:100B63004FC45007716F12040480C82212052FADC1
:100B7300500671891203932212052F4E4FD450064B
:100B830071891203A22212055F50041202A12212DC
:100B930005C450012212052F524EC4500F12046592
:100BA30071BD1204041203A51203B32212052F41CF
:100BB30042D3500671BD1203A52212052FA8500976
:100BC30051ED12052FA9500122017812052FBD50B6
:100BD30005120178022212052F3CBD50051201783F
:100BE300062212052F3CBE5005120178052212057C
:100BF3002FBC5005120178042212052F3EBD50056B
:100C0300120178032212052FBE500512017801222A
:100C1300C3220F8F9022000A464F5220493D3120B4
:100C2300544F20390D0014464F52204A3D31205471
:100C33004F20390D001E5052494E5420492A4A2C48
:100C43000D00284E455854204A0D00325052494E4B
:0C0C5300540D003C4E45585420490D80C3
:00000001FF
